:020000040800F2
:1000000020340120E902000865110008C910000829
:10001000611100081F0600084912000800000000D6
:10002000000000000000000000000000290200089D
:10003000230600080000000085020008691100087E
:100040000303000803030008030300080303000878
:100050000303000803030008030300080303000868
:100060000303000803030008030300080303000858
:100070000303000803030008030300080303000848
:100080000303000803030008030300080303000838
:100090000303000803030008030300080303000828
:1000A0000303000803030008030300080303000818
:1000B0000303000803030008030300080303000808
:1000C00003030008030300080303000803030008F8
:1000D00003030008030300080303000803030008E8
:1000E00003030008030300080303000803030008D8
:1000F00003030008030300080303000803030008C8
:1001000003030008030300080303000803030008B7
:1001100003030008030300080303000803030008A7
:100120000303000803030008030300080303000897
:100130000303000803030008030300080303000887
:100140000303000803030008030300080303000877
:100150000303000803030008030300080303000867
:100160000303000803030008030300080303000857
:100170000303000803030008030300080000000055
:10018000030300080303000800F002F800F03CF845
:100190000AA090E8000C82448344AAF10107DA45E2
:1001A00001D100F031F8AFF2090EBAE80F0013F0F8
:1001B000010F18BFFB1A43F001031847C02A0000C3
:1001C000E02A0000103A24BF78C878C1FAD8520754
:1001D00024BF30C830C144BF04680C6070470000C1
:1001E0000023002400250026103A28BF78C1FBD840
:1001F000520728BF30C148BF0B6070471FB502F0DF
:100200002BFD1FBD10B510BD00F0D0F91146FFF752
:10021000F5FF01F067F800F0EEF903B4FFF7F2FF25
:1002200003BC00F0F5F900002C4B19680868B0E831
:10023000F04F80F30988BFF36F8F4FF0000080F319
:10024000118870470000000008480068006880F3CB
:1002500008884FF0000080F3148862B661B6BFF3DF
:100260004F8FBFF36F8F00DF00BF00BF08ED00E0CE
:10027000DFF80C00016841F470010160704700BFB5
:1002800088ED00E0EFF30980BFF36F8F134B1A681E
:100290001EF0100F08BF20ED108A20E9F04F10600B
:1002A00009B44FF0500080F31188BFF34F8FBFF3B4
:1002B0006F8F01F085FF4FF0000080F3118809BCBB
:1002C00019680868B0E8F04F1EF0100F08BFB0ECD6
:1002D000108A80F30988BFF36F8F704714000020E5
:1002E000EFF3058070470000094880470948004740
:1002F000FEE7FEE7FEE7FEE7FEE7FEE7FEE7FEE7D6
:10030000FEE7FEE704480549054A064B7047000032
:100310003512000889010008202E01202034012018
:10032000203001202030012053EA020C00F06980C7
:100330002DE9F04B4FF00006002B1FBFB3FA83F5F9
:1003400003FA05F424FA05F65E4012BF1643B2FA2A
:1003500082F502FA05F4C5F120051EBF22FA05FC5C
:1003600044EA0C04203556EA044C4FEA144418BF02
:10037000641C4FF000084FF00009904271EB030C31
:1003800039D3002919BFB1FA81F701FA07F6B0FA9B
:1003900080F700FA07F6C7F120071EBF20FA07FC16
:1003A00046EA0C062037B6FBF4FCA7EB0507103F26
:1003B00007F01F0BCBF120060CFA0BFB2CFA06F60C
:1003C00044BFB3460026202FA4BF5E464FF0000B6B
:1003D0005BEA060C08BF4FF0010B19EB0B09ABFBF6
:1003E000027C48EB0608C01B06FB02CC0BFB03CCCF
:1003F00071EB0C01C1E70B46024641464846BDE899
:10040000F08B13B54FF000004FF00001AFF3008008
:10041000BDE81C407047032A40F2308010F0030C06
:1004200000F0158011F8013BBCF1020F624498BF47
:1004300011F801CB00F8013B38BF11F8013BA2F1E4
:10044000040298BF00F801CB38BF00F8013B11F05F
:10045000030300F07980083AC0F0088051F8043BAB
:10046000083A51F804CBA0E80810F5E7121D5CBF6C
:1004700051F8043B40F8043BAFF30080D20724BF9F
:1004800011F8013B11F801CB48BF11F8012B24BF33
:1004900000F8013B00F801CB48BF00F8012B704782
:1004A00002F0FF0343EA032242EA024200F002B8EC
:1004B0004FF000020429C0F0128010F0030C00F08D
:1004C0001B80CCF1040CBCF1020F18BF00F8012B0B
:1004D000A8BF20F8022BA1EB0C0100F00DB85FEAD9
:1004E000C17C24BF00F8012B00F8012B48BF00F8A5
:1004F000012B70474FF0000200B513469446964614
:10050000203922BFA0E80C50A0E80C50B1F1200126
:10051000BFF4F7AF090728BFA0E80C5048BF0CC0D4
:100520005DF804EB890028BF40F8042B08BF704732
:1005300048BF20F8022B11F0804F18BF00F8012BA4
:10054000704770477047704710B5203AC0F00B8075
:10055000B1E81850203AA0E81850B1E81850A0E8C7
:100560001850BFF4F5AF5FEA027C24BFB1E8185021
:10057000A0E8185044BF18C918C0BDE810405FEA91
:10058000827C24BF51F8043B40F8043B08BF70470D
:10059000D20728BF31F8023B48BF11F8012B28BF12
:1005A00020F8023B48BF00F8012B7047754600F069
:1005B0002BF8AE4605006946534620F007008546F5
:1005C00018B020B5FFF79EFEBDE820404FF00006B2
:1005D0004FF000074FF000084FF0000B21F007012B
:1005E000AC46ACE8C009ACE8C009ACE8C009ACE86E
:1005F000C0098D46704710B50446AFF30080204611
:10060000BDE81040FFF709BE00487047C02D01202B
:1006100001491820ABBEFEE726000200704700BF6C
:10062000FEE7704772B600BFFEE70000F8B502466D
:100630000B460025002400200021D6E0012606FA02
:1006400001F51E6806EA0504AC4274D11E7906F075
:100650000306012E04D01E7906F00306022E13D1E4
:1006600090684F000326BE40B0434F00DE68BE4096
:1006700030439060506801268E40B0431E79C6F327
:1006800000168E40304350601E7906F00306032E9C
:1006900009D0D0684F000326BE40B0434F009E688B
:1006A000BE403043D0601E7906F00306022E13D1FF
:1006B000CF0802F1200656F827004E07F70E0F2646
:1006C000BE40B0434F07FF0E1E69BE403043CF0807
:1006D00002F1200646F8270010684F000326BE40AE
:1006E000B0431E7906F003064F00BE403043106051
:1006F0005E6806F44036002E76D000BF00260096D5
:100700003C4E366846F480463A4F3E603E46366878
:1007100006F48046009600BF00BF374E8F0856F89B
:1007200027008E07370F0F26BE40B043334EB2422C
:1007300002D1002624E057E0314EB24201D1012619
:100740001EE0304EB24201D1022619E02E4EB242D6
:1007500001D1032614E02D4EB24201D104260FE050
:100760002B4EB24201D105260AE02A4EB24201D1F7
:10077000062605E0284EB24201D1072600E00826F1
:100780008F073F0FBE4030431B4E8F0846F82700AF
:10079000224E3068A0435E6806F4801606B12043FE
:1007A0001E4E3060361D3068A0435E6806F40016A9
:1007B00006B12043194E361D3060184E361F306882
:1007C000A0435E6806F4003606B12043134E361F80
:1007D0003060361F3068A0435E6806F4803606B18C
:1007E00020430E4E083E3060491C1029FFF426AF0E
:1007F000F8BD0000443802400838014000000240C3
:100800000004024000080240000C024000100240B8
:100810000014024000180240001C0240083C014045
:100820000AB1816101E00B048361704701480068EF
:10083000704700000400002003480068034909785D
:100840000844014908607047040000200C000020A3
:1008500010B50D48006840F400700B490860084668
:10086000006840F4806008600846006840F48070CA
:100870000860032000F092F80F2000F007F800F065
:100880002BF8002010BD0000003C024070B504466B
:100890000E4800784FF47A71B1FBF0F00C4909680A
:1008A000B1FBF0F5284600F0F5FB08B1012070BD62
:1008B000102C07D200222146501E00F031F80548C6
:1008C000046001E00120F2E70020F0E70C000020C6
:1008D000100000200800002008B500BF0020009094
:1008E0000E48006840F480400C49086008460068E3
:1008F00000F48040009000BF00BF00BF00200090C7
:10090000081F006840F08050091F08600846006812
:1009100000F08050009000BF00BF08BD4438024086
:100920002DE9F05F80460D461646002700F08EFC4C
:10093000074639462A46334601F00700C0F1070A48
:10094000BAF1040F02D94FF0040A01E0C0F1070A1E
:10095000D14600F1040ABAF1070F02D24FF0000AA3
:1009600001E0A0F1030AD4464FF0010A0AFA09FA9D
:10097000AAF1010A0AEA020A0AFA0CFA4FF0010B7C
:100980000BFA0CFBABF1010B0BEA030B4AEA0B046D
:100990002146404600F062FCBDE8F09F00BF00F039
:1009A0000702064B19684FF6FF031940044B0B432F
:1009B00043EA0221014B196000BF70470CED00E0D3
:1009C0000000FA0570B504460D460CB9012070BD53
:1009D0005848006800F00700A84209D255490D7038
:1009E0000846006800F00700A84201D00120EEE7A9
:1009F000207800F0020002281DD1207800F00400C9
:100A0000042805D14C48006840F4E0504A49086089
:100A1000207800F00800082805D14748006840F415
:100A20006040454908604448006820F0F000A16833
:100A3000084341490860207800F00100A8B36068CD
:100A4000012807D13C4808380068C0F34040B8B9D5
:100A50000120BCE76068022802D06068032807D143
:100A6000354808380068C0F3406048B90120AEE757
:100A7000314808380068C0F3400008B90120A6E7F3
:100A80002D48006820F00300616808432A49086087
:100A9000FFF7CCFE064609E0FFF7C8FE801B41F2D7
:100AA0008831884202D9032091E707E02248006894
:100AB00000F00C006168B0EB810FEDD11D480068BB
:100AC00000F00700A84209D91A490D7008460068CD
:100AD00000F00700A84201D0012078E7207800F05C
:100AE0000400042807D11448006820F4E050E168AD
:100AF000084311490860207800F00800082808D150
:100B00000D48006820F46040216940EAC1000A49AC
:100B1000086000F019F808490968C1F30311074A91
:100B2000515CC8400649086006480068FFF7AEFE01
:100B300000204CE7003C024008380240622C0008CC
:100B400010000020080000202DE9F04700240025B7
:100B50000026A1462548006800F00C0020B10428BA
:100B600005D008283AD105E0DFF8849039E0DFF8B5
:100B7000849036E01D48001F006800F03F041B48C9
:100B8000001F006800F4800078B11A481749091F57
:100B90000968C1F38811A0FB0170014622460023B9
:100BA0003846FFF7C1FB05460EE011480F49091F03
:100BB0000968C1F38811A0FB017001462246002399
:100BC0003846FFF7B1FB05460848001F0068C0F330
:100BD0000140401C4600B5FBF6F902E0DFF810903A
:100BE00000BF00BF4846BDE8F0870000083802405B
:100BF0000024F40000127A00F8B504460CB9012074
:100C0000F8BD207800F00100002874D0F948006891
:100C100000F00C0004280DD0F648006800F00C002D
:100C2000082813D1F348001F006800F48000B0F5D5
:100C3000800F0BD1EF4808380068C0F3404000280F
:100C400059D06068002856D10120D9E700BF6068FC
:100C5000B0F5803F08D1E7480838006840F480309C
:100C6000E449083908601EE06068B0F5A02F0DD196
:100C7000E0480838006840F48020DE490839086000
:100C80000846006840F4803008600CE0D948083815
:100C9000006820F48030D7490839086008460068A9
:100CA00020F48020086000BF606890B1FFF7BEFDAF
:100CB000054606E0FFF7BAFD401B642801D9032072
:100CC0009EE7CC4808380068C0F340400028F1D0C7
:100CD00011E0FFF7ABFD054606E0FFF7A7FD401B5F
:100CE000642801D903208BE7C24808380068C0F3A4
:100CF00040400028F1D1207800F0020002285FD1A6
:100D0000BC48006800F00C0058B1BA48006800F018
:100D10000C0008281CD1B748001F006800F48000B0
:100D2000B0B9B44808380068C0F3400020B1E068AA
:100D3000012801D0012063E7AE480838006820F0A0
:100D4000F800216940EAC100AA490839086037E083
:100D5000E06800B30120A8490860FFF767FD054679
:100D600006E0FFF763FD401B022801D9032047E797
:100D7000A04808380068C0F340000028F1D09D4822
:100D80000838006820F0F800216940EAC10099495C
:100D90000839086014E0002097490860FFF746FD15
:100DA000054606E0FFF742FD401B022801D903205B
:100DB00026E7904808380068C0F340000028F1D1C9
:100DC000207800F0080008282CD16069A8B1012023
:100DD0008A490860FFF72AFD054606E0FFF726FD71
:100DE000401B022801D903200AE782486C300068C2
:100DF000C0F340000028F1D014E000207F490860D3
:100E0000FFF714FD054606E0FFF710FD401B022822
:100E100001D90320F4E677486C300068C0F3400045
:100E20000028F1D1207800F00400042870D10027B8
:100E300070483830006800F0805090B900BF002042
:100E400000906C483830006840F080506949383173
:100E500008600846006800F08050009000BF00BFA6
:100E600001276748006800F48070B0B964480068E2
:100E700040F4807062490860FFF7D8FC054606E040
:100E8000FFF7D4FC401B022801D90320B8E65C48D8
:100E9000006800F480700028F2D000BFA06801282C
:100EA00008D154486830006840F001005149683169
:100EB00008601DE0A06805280DD14E486830006824
:100EC00040F004004B49683108600846006840F073
:100ED000010008600CE047486830006820F001001D
:100EE0004449683108600846006820F00400086042
:100EF00000BFA068A8B1FFF799FC054609E0FFF71D
:100F000095FC401B41F28831884202D9032077E6E4
:100F100026E0384868300068C0F340000028EED072
:100F200013E0FFF783FC054608E0FFF77FFC401B5A
:100F300041F28831884201D9032061E62D486830AA
:100F40000068C0F340000028EFD1012F07D12948E5
:100F50003830006820F0805026493831086000BFE2
:100F6000A069002845D02348006800F00C0008283C
:100F70005DD0A069022845D100201F490866FFF70F
:100F800055FC054606E0FFF751FC401B022801D93D
:100F9000032035E6174808380068C0F34060002891
:100FA000F1D1D4E907010843616A40EA81110122C5
:100FB000A06AC2EB500041EA00412C20005D41EAEA
:100FC00000600C49091F086001200B490866FFF703
:100FD0002DFC054606E0FFF729FC401B022801D93D
:100FE00003200DE6034808380068C0F3406000287D
:100FF000F1D049E00838024000004742800E4742E5
:1010000000700040002021490866FFF70FFC0546EC
:1010100006E0FFF70BFC401B022801D90320EFE597
:101020001B480068C0F340600028F2D12CE0A069A2
:10103000012800D1E4E51648001D0668A0690128D2
:1010400020D006F48001E06981421BD106F03F0107
:10105000206A814216D147F6C0703040616AB0EB19
:10106000811F0FD106F440310122A06AC2EB50006B
:10107000B1EB004F06D106F070612C20005DB1EBA2
:10108000006F01D00120BBE50020B9E50000474218
:101090000038024070B504462546681EB0F1807FD6
:1010A00001D301200FE0681E4FF0E02148610F21BD
:1010B0004FF0FF3000F0D2F800204FF0E0218861BF
:1010C00007200861002070BD00BFFEE700B587B0B3
:1010D000142102A8FFF70EFA00BF002001901E485D
:1010E000006840F004001C4908600846006800F0F1
:1010F0000400019000BF00BF00BF0020019008461F
:10110000006840F0800008600846006800F0800039
:10111000019000BF00BF00BF00200190084600689A
:1011200040F0010008600846006800F001000190EE
:1011300000BF00BF0022C0210848FFF771FBC0209C
:1011400002900120039000200490059002A903481A
:10115000FFF76CFA07B000BD3038024000000240D3
:1011600000BFFEE700BFFEE710B5FFF765FB01F02B
:1011700007FB012801D000F085F810BD00B593B041
:10118000302107A8FFF7B6F9142102A8FFF7B2F93A
:1011900000BF002001902548006840F0805023499E
:1011A00008600846006800F08050019000BF00BF52
:1011B00000BF002001901E48006840F480401C4998
:1011C00008600846006800F48040019000BF00BF3E
:1011D0000220079001200A9010200B9002200D9011
:1011E00000210E9108210F91A82110910221119147
:1011F0000421129107A8FFF7FFFC08B1FFF712FACC
:101200000F20029002200390002004904FF4A05081
:1012100005904FF480500690052102A8FFF7D2FBFD
:1012200008B1FFF7FFF913B000BD000040380240DD
:10123000007000400348006840F4700001490860F5
:101240007047000088ED00E000BFFEE7024800683C
:10125000C0F30220704700000CED00E010B500283C
:1012600004DB0A07130E054A135406E00A07140E9E
:10127000034A00F00F031B1FD45410BD00E400E02C
:1012800018ED00E010B500BF502080F31188BFF3C7
:101290004F8FBFF36F8F00BF01F088FA18B14FF086
:1012A00080500449086000BF002080F3118800BF0F
:1012B00010BD000004ED00E011E0012240210848CB
:1012C000FFF7AEFA4FF47A7000F096FE002240214C
:1012D0000348FFF7A5FA4FF47A7000F08DFEECE7B3
:1012E000000002401CB5FFF7B3FAFFF747FFFFF716
:1012F000EDFE002280210848FFF792FA07480221FC
:1013000000233222CDE9001005A1084801F004FABB
:1013100000F000FF00BFFEE70000024000000020D8
:101320006C6564315F7461736B000000B912000872
:101330002DE9F04105460E46264807682648006814
:10134000001D00F023FD50B92348006890F82C10D0
:101350000120884021490968814320480160681CB8
:10136000D8B9D6B11E4948681B49096888601A492E
:1013700082680968CA6018490968091D8268516055
:1013800015490968091D8160154A134909684A61B0
:1013900011460968491C11601AE07C190E48006862
:1013A0004460BC4207D20C480168091D0D48006822
:1013B00000F010FD0CE008480168091D0A480068AB
:1013C00000F008FD09480068844201D20748046023
:1013D000BDE8F08128000020140000202C0000202F
:1013E000840100201C000020180000204400002080
:1013F00010B5044600F008FD31480068401C304933
:1014000008603048006840B92E480460084600680B
:1014100001280DD100F0B2F90AE02B48006838B974
:1014200028480068C06AE16A884201D825480460FB
:1014300026480068401C254908600846006820646A
:1014400094F82C100120884021490968084320495C
:101450000860E16A01EB81011E4A02EB81014868E4
:10146000A0608268E260211D826851608160E16A4B
:1014700001EB8101174A02EB81026261E16A01EB33
:101480008101144A52F82110491CE26A02EB8202DF
:10149000104B43F8221000F0E1FC0B48006868B1E3
:1014A00008480068C06AE16A884207D24FF080505D
:1014B00009490860BFF34F8FBFF36F8F10BD000065
:1014C00024000020140000203000002040000020F4
:1014D0002C000020D000002004ED00E010B500F04A
:1014E00093FC10480068D0B90F4800F063FC0F4827
:1014F00000F060FC0C480E4908600C480D4908607B
:1015000000220C210A2000F069FF06490860084605
:10151000006820B108A10348006800F017FD00F042
:101520009DFC10BD5C00002098010020AC01002053
:101530005400002058000020546D7251000000003B
:1015400010B516E000F060FC0C48C068C468201DAF
:1015500000F01CFC0A480068401E09490860094860
:101560000068401E0749086000F078FC204600F043
:1015700020F8044800680028E4D110BD7001002064
:10158000240000202000002070B504460D46206C89
:1015900070B1216CE0680144E160D4E90210884236
:1015A00001D32168E1602846226CE168FEF733FF31
:1015B00070BD10B50446206B00F06EFC204600F0B4
:1015C0006BFC10BD0146084A126812680AB9012274
:1015D00000E000220A600A6822B9034A1268D26851
:1015E000106800E0002070475400002030B54FF430
:1015F0009633154800F007042CB1C01D20F00700F9
:10160000114C041B1B1B0246104C226000240F4D82
:101610006C60D018083820F007000D4C20600024C2
:101620000B4D2D686C600A4D2D682C601146441AD4
:101630004C60074C24680C60064D4C682C60064DCD
:101640004C682C6030BD0000C00100206800002004
:1016500070000020780000207400002000BFFFF719
:101660006FFF064800680128F9D94FF080500449FF
:101670000860BFF34F8FBFF36F8FF0E7D0000020FB
:1016800004ED00E02DE9F04106460D461746984668
:10169000069C0DB9246000E02760E6632564012103
:1016A000204600F0CFFE84F84C80BDE8F0812DE9A3
:1016B000F05F82460F4690469B460A9E0C9C4FEA7E
:1016C0008801A522206BFEF7EBFEA8F10100216B3B
:1016D00001EB800929F0070909F0070008B901208A
:1016E00000E0002050B900BF502080F31188BFF304
:1016F0004F8FBFF36F8F00BF00BFFEE77FB10025A4
:1017000007E0795D04F134004155785D00B902E0ED
:101710006D1C0A2DF5D300BF00213D200155052E7B
:1017200001D2012000E0002050B900BF502080F31A
:101730001188BFF34F8FBFF36F8F00BF00BFFEE76D
:10174000052E00D30426E662A664201D00F03FFBB0
:1017500004F1180000F03BFB2461C6F10500A06114
:1017600064625A465146484600F0FAFA20600B98E7
:1017700008B10B980460BDE8F09F000010B500248C
:1017800007E004EB84010F4A02EB810000F012FB3A
:10179000641C052CF5D30C4800F00CFB0B4800F042
:1017A00009FB0B4800F006FB0A4800F003FB0A485F
:1017B00000F000FB04480949086004480849086033
:1017C00010BD0000D000002034010020480100209E
:1017D0005C0100207001002084010020180000201E
:1017E0001C00002010B50146164800E000680368A0
:1017F0008B42FBD30246436813448B4204D14368B7
:101800004C682344436001460A464B68134404680D
:10181000A34211D10C4C03682468A34208D04B6842
:101820000468646823444B6003681B680B6005E030
:10183000054B1B680B6001E003680B60884200D019
:10184000016010BD68000020700000202DE9F0410B
:1018500004460D4616461F464FF000086560246199
:10186000B5420CD8F01BA169884202D34FF00108A1
:1018700011E0211D0948006800F0ACFA0BE0BE42FF
:1018800004D2BD4202D34FF0010804E0211D0448F8
:10189000006800F09FFA4046BDE8F0815800002043
:1018A0005400002070B5054600F0AEFAA86B08B9E8
:1018B000012400E0002400F0D1FA204670BD0000B1
:1018C00070B505460E460E480068C068C468201D05
:1018D00000F05CFA94F8280000F0040028B13246C9
:1018E0002946204600F0D6F805E094F8280000F0DC
:1018F000FE0084F828002046216A884770BD000059
:10190000540000207FB57FE0019800287CDB039C19
:10191000606908B9012000E0002010B9201D00F026
:1019200035FA684600F0E2F8054601980A2869D2BF
:10193000DFE800F06805072E365806082F3700BF8D
:1019400000BF00BF94F8280040F0010084F8280090
:101950000298A269811803462A462046FFF776FFBF
:10196000A8B194F8280000F0040038B10298A269E8
:1019700081182A46204600F08DF805E094F82800EA
:1019800000F0FE0084F828002046216A88473AE0EB
:1019900000BF94F8280000F0FE0084F8280032E030
:1019A00000BF94F8280040F0010084F82800029855
:1019B000A061A06908B1012000E0002050B900BF7B
:1019C000502080F31188BFF34F8FBFF36F8F00BF9C
:1019D00000BFFEE7A06941192B462A462046FFF7C3
:1019E00035FF10E094F8280000F0020018B92046F6
:1019F00000F052FA05E094F8280000F0FE0084F8A8
:101A0000280000E000BF00BF002201A903480068D1
:101A100000F086FD00287FF477AF7FBD5C000020DA
:101A2000F8B505460C4600F0C3FB684600F05EF8CA
:101A30000646009820BB44B9B54206D801F024F808
:101A400031462846FFF73CFF1CE03CB10E480068D9
:101A5000006808B9012000E000200446A91B2246C6
:101A60000A48006800F0A2FA01F00EF850B94FF0F1
:101A7000805007490860BFF34F8FBFF36F8F01E0BD
:101A800001F002F8F8BD0000580000205C000020C2
:101A900004ED00E070B504460D46164604E0A0696A
:101AA00005442046216A8847A06941192B463246E1
:101AB0002046FFF7CBFE0028F1D170BD0948006831
:101AC000006808B9012000E0002020B14FF0FF308D
:101AD0000549086005E003480068C06800680249DD
:101AE00008607047180000204400002070B50446CC
:101AF00000F056FE054607480068854204D200F013
:101B00000BF80120206001E0002020600148056002
:101B1000284670BD6400002070B508E00D480068DC
:101B2000C06804684FF0FF312046FFF7C9FE09483E
:101B30000068006808B9012000E000200028EDD00E
:101B400004480568044800680249086002480560C6
:101B500070BD000054000020580000200E480068AE
:101B6000401C08B9012000E0002050B900BF5020FF
:101B700080F31188BFF34F8FBFF36F8F00BF00BF9B
:101B8000FEE700BF502080F31188BFF34F8FBFF3F3
:101B90006F8F00BF00BFFEE78400002008B500BFC4
:101BA0006846FFF70FFD044620460099FFF738FF0F
:101BB000FFF7A8FEF4E770B5044600F025F994F9A4
:101BC000455010E0606A08B9012000E0002038B9F3
:101BD00004F1240000F0C8FE18B100F047FA00E05C
:101BE00003E0681E45B2002DECDC00BFFF2084F846
:101BF000450000F033F900F007F994F9445010E083
:101C0000206908B9012000E0002048B904F1100063
:101C100000F0AAFE08B100F029FA681E45B200E003
:101C200001E0002DECDC00BFFF2084F8440000F050
:101C300015F970BD2DE9F04705464FF0000900F099
:101C4000B7FA4248006808B9FFF7D0FC75B105F053
:101C50000700C0F11008C8F1FF30A84201D20120EE
:101C600000E0002008B9454400E00025012000EB19
:101C7000E570002853D0002D51D0354800688542CA
:101C80004DD8344E3046046801E02646246860682A
:101C9000A84202D220680028F7D12C48006884426C
:101CA0003DD0306800F10809206830606068401B52
:101CB000102819D9671907F0070008B9012000E0BA
:101CC000002050B900BF502080F31188BFF34F8F20
:101CD000BFF36F8F00BF00BFFEE76068401B7860F6
:101CE00065603846FFF77EFD194960680968081A83
:101CF000174908600846006817490968884203D2F6
:101D00001348006814490860606840F00040606053
:101D10000020206011480068401C1049086000F055
:101D2000B3FE09F0070008B9012000E0002050B917
:101D300000BF502080F31188BFF34F8FBFF36F8F28
:101D400000BF00BFFEE74846BDE8F08770000020F6
:101D50007400002068000020780000207C00002033
:101D6000001F4FF080730360001F21F00103036028
:101D7000001F054B036014380260001F6FF0020360
:101D800003602038704700005D1B000801460A69A7
:101D9000D1E901309860D1E9010358605068884268
:101DA00001D188685060002008611068401E1060F2
:101DB0001068704700F1080141604FF0FF31816009
:101DC00000F10801C160016100210160704700213C
:101DD0000161704710B502460B685C1C0CB91069B4
:101DE00007E002F1080000E04068446824689C4273
:101DF000FAD944684C604C68A160886041600A610F
:101E00001468641C146010BD00BF502080F311885A
:101E1000BFF34F8FBFF36F8F00BF0E480068401CA9
:101E20000C49086008460068012812D10A48006879
:101E3000C0B208B9012000E0002050B900BF502016
:101E400080F31188BFF34F8FBFF36F8F00BF00BFC8
:101E5000FEE770478400002004ED00E00D480068B4
:101E600050B900BF502080F31188BFF34F8FBFF3EC
:101E70006F8F00BF00BFFEE706480068401E05499F
:101E800008600846006820B9002080F3118800BF70
:101E900000BF70478400002070B506463546002E0E
:101EA0003BD0083D2C466068C00F50B900BF5020A1
:101EB00080F31188BFF34F8FBFF36F8F00BF00BF58
:101EC000FEE7206808B9012000E0002050B900BFFB
:101ED000502080F31188BFF34F8FBFF36F8F00BF87
:101EE00000BFFEE76068C00FB8B12068A8B960689D
:101EF00020F00040606000F05BF908496068096804
:101F00000844064908602046FFF76CFC0448006856
:101F1000401C0349086000F0B7FD70BD740000204C
:101F20008000002000204FF0E02108618861064811
:101F300000684FF47A71B0FBF1F0401E4FF0E021E1
:101F400048610720086170471000002030B5024644
:101F50000B46002152B900BF502484F31188BFF30F
:101F60004F8FBFF36F8F00BF00BFFEE7BBB10020F4
:101F700012E00D4C04EBC0046468944203D10A4C97
:101F800004EBC0010AE031B9074C54F8304014B9F1
:101F9000054C04EBC001401C0828EAD300BF09B17E
:101FA0000B604A6030BD0000900000202DE9F04138
:101FB00005460E4617462C46FFF726FF94F94400C7
:101FC000401C10B9002084F8440094F94500401CDE
:101FD00010B9002084F84500FFF740FFA06B28B936
:101FE0003A46314604F1240000F062F82046FFF73B
:101FF000E2FDBDE8F081000070B504460025D4B1D3
:102000001248006808B9012000E0002050B900BF64
:10201000502080F31188BFF34F8FBFF36F8F00BF45
:1020200000BFFEE700F0C4F800212046FFF780F96A
:1020300000F02AFD05463DB94FF080500449086084
:10204000BFF34F8FBFF36F8F70BD000050000020B3
:1020500004ED00E003490968016003490968416033
:10206000704700003C0000202800002001200149AA
:10207000086070473800002070B504460D4654B91A
:1020800000BF502080F31188BFF34F8FBFF36F8FD5
:1020900000BF00BFFEE70548016818312046FFF782
:1020A00099FE01212846FFF743F970BD1400002076
:1020B00070B504460E46154654B900BF502080F353
:1020C0001188BFF34F8FBFF36F8F00BF00BFFEE7D4
:1020D00060680F490968C8610D49826809680A6229
:1020E0000B4909681831826851600949096818313B
:1020F0008160074909688C622168491C21600DB123
:102100004FF0FF3629463046FFF712F970BD000048
:10211000140000201CB51E4800210B468222CDE988
:1021200000101CA11D4800F0F7FA0446012C02D152
:1021300000F066FD0446012C15D100BF502080F34D
:102140001188BFF34F8FBFF36F8F00BF4FF0FF3089
:1021500013490860012013490860002012490860F3
:1021600000F074F810E0601C08B1012000E00020CD
:1021700050B900BF502080F31188BFF34F8FBFF3D9
:102180006F8F00BF00BFFEE7084800681CBD00005D
:102190004800002049444C45000000005D1600083E
:1021A0004400002030000020280000204C000020C7
:1021B00002480068401C0149086070475000002038
:1021C0001D48006818B101201C49086032E0002059
:1021D0001A4908601A480068B0FA80F0C0F11F017F
:1021E00001EB8100174A52F8200008B1012000E0FD
:1021F000002050B900BF502080F31188BFF34F8FEB
:10220000BFF36F8F00BF00BFFEE701EB81020D4BF4
:1022100003EB820042685268426000F108024368A2
:10222000934202D14268526842604268D268064BCB
:102230001A6000BF704700005000002038000020E6
:102240002C000020D0000020140000201CB55C48A9
:1022500000685C49884201D0012000E0002050B9AC
:1022600000BF502080F31188BFF34F8FBFF36F8FF3
:1022700000BF00BFFEE7524800685249491E88422D
:1022800001D0012000E0002050B900BF502080F3B1
:102290001188BFF34F8FBFF36F8F00BF00BFFEE702
:1022A0004949084600780190FF200A461070084608
:1022B000007800909DF8000000F0F0009DF80020EC
:1022C000904201D1012000E0002050B900BF502011
:1022D00080F31188BFF34F8FBFF36F8F00BF00BF34
:1022E000FEE79DF8000000F05000384A107007200B
:1022F000374A106009E036480068401E344A1060D2
:102300009DF800004006000E00909DF8000000F0CF
:1023100080008028EFD02E480068C0F10700042814
:1023200001D1012000E0002050B900BF502080F30F
:102330001188BFF34F8FBFF36F8F00BF00BFFEE761
:1023400023480068C0F10700042801D1012000E003
:10235000002050B900BF502080F31188BFF34F8F89
:10236000BFF36F8F00BF00BFFEE71948006800028F
:10237000174A10601046008800F4E0601060124AAE
:10238000019810700E482030006840F470000C492D
:10239000203108600846006840F070400860FFF790
:1023A000C1FD00200B490860FDF762FF0A48006884
:1023B00040F0404008490860FDF746FF00201CBD82
:1023C00000ED00E071C20F4100E400E08800002051
:1023D0008C0000208400002034EF00E02DE9F84359
:1023E00005460E4617460024E5B1601EB0FBF5F029
:1023F000B04217D305FB06F010F1510F12D805FBC0
:1024000006F808F15000FFF715FC0446B4B1A146E8
:1024100009F150093B464A46314628460094FFF7E9
:1024200031F90BE054B900BF502080F31188BFF39D
:102430004F8FBFF36F8F00BF00BFFEE72046BDE8A0
:10244000F88300002DE9F04105460E4601272C4691
:1024500054B900BF502080F31188BFF34F8FBFF3F2
:102460006F8F00BF00BFFEE7002C42D0E06B00285A
:102470003FD04FF0FF31E06BB1FBF0F0216C8842B0
:1024800037D3FFF7C1FCD4E90F12206801FB02002B
:10249000A0600020A06320686060E06B401E226C9A
:1024A000216800FB0211E160FF2084F8440084F8F9
:1024B00045009EB9206908B9012000E00020A8B9B4
:1024C00004F1100000F050FA80B14FF08050134931
:1024D0000860BFF34F8FBFF36F8F07E004F1100068
:1024E000FFF768FC04F12400FFF764FCFFF7B6FC7B
:1024F00000E000270FB1012000E0002050B900BF2C
:10250000502080F31188BFF34F8FBFF36F8F00BF50
:1025100000BFFEE73846BDE8F081000004ED00E0B2
:102520002DE9F74183B005460E464FF000082C46D2
:1025300054B900BF502080F31188BFF34F8FBFF311
:102540006F8F00BF00BFFEE70EB9206C08B90120F5
:1025500000E0002050B900BF502080F31188BFF385
:102560004F8FBFF36F8F00BF00BFFEE700F008F989
:1025700008B9059808B9012000E0002050B900BF53
:10258000502080F31188BFF34F8FBFF36F8F00BFD0
:1025900000BFFEE700BFFFF737FCA76BF7B131467E
:1025A0002046FEF7F1FF781EA063206908B90120DC
:1025B00000E0002060B904F1100000F0D5F938B156
:1025C0004FF080502F490860BFF34F8FBFF36F8FDC
:1025D000FFF744FC012006B0BDE8F081059818B96A
:1025E000FFF73CFC0020F6E7B8F1000F04D101A88A
:1025F000FFF730FD4FF00108FFF730FCFFF7D8FD83
:10260000FFF702FC94F94400401C10B9002084F844
:10261000440094F94500401C10B9002084F845009E
:10262000FFF71CFC05A901A800F02EF8F0B9204620
:10263000FFF738F9A0B104F124000599FFF71CFD5C
:102640002046FFF7B8FA00F01FFA0028A3D14FF098
:1026500080500C490860BFF34F8FBFF36F8F9AE72C
:102660002046FFF7A8FA00F00FFA94E72046FFF79C
:10267000A2FA00F009FA2046FFF714F900288AD0E0
:102680000020A8E704ED00E070B505460C4655B9FA
:1026900000BF502080F31188BFF34F8FBFF36F8FBF
:1026A00000BF00BFFEE754B900BF502080F311887F
:1026B000BFF34F8FBFF36F8F00BF00BFFEE7FFF781
:1026C000A3FB134802686868131A2068401C08B905
:1026D000002619E00F4928680968884206D0686812
:1026E000904203D80126002020600DE02068984227
:1026F00007D92068C01A20602846FFF7ABFC0026E7
:1027000002E0002020600126FFF7A8FB304670BDE4
:10271000280000203C0000202DE9FF4F85B08046B6
:1027200089461746DDE912ABB800FFF783FA064683
:1027300076B15820FFF77EFA04462CB15821204686
:10274000FDF7D8FE266304E03046FFF7A5FB00E066
:1027500000247CB10020CDE900ABCDE902403A462F
:1027600049464046089BFEF7A2FF2046FEF740FE82
:10277000012501E04FF0FF35284609B0BDE8F08F94
:102780000549096809B9012005E00449096809B942
:10279000022000E0002070473000002050000020A0
:1027A0000149086870470000280000202DE9F04129
:1027B0004FF000086148006800287DD1604800683B
:1027C000451C5F48056015BB5E480068006808B995
:1027D000012000E0002050B900BF502080F3118894
:1027E000BFF34F8FBFF36F8F00BF00BFFEE75548A9
:1027F00007685548006853490860534807605348C4
:102800000068401C51490860FFF758F900BF504864
:102810000068854277D300BF4A480068006808B95D
:10282000012000E0002020B14FF0FF30484908604F
:1028300068E044480068C068C4686668B54202D26F
:10284000434806605EE06069D4E902128A60D4E918
:1028500002214A60211D42688A4201D1E16841603B
:10286000002262610168491E0160A06A98B1A06AF5
:10287000D4E907128A60D4E907214A6004F11801FB
:1028800042688A4201D1216A41600022A262016845
:10289000491E016000BF94F82C10012088402D498A
:1028A000096808432B490860E16A01EB81012A4A63
:1028B00002EB8101486800E037E0A0608268E260D6
:1028C000211D826851608160E16A01EB8101224A29
:1028D00002EB81026261E16A01EB81011E4A52F85A
:1028E0002110491CE26A02EB82021B4B43F82210C2
:1028F0001A49E06A0968C96A88428DD94FF001080F
:102900008AE700E000BF15480068C06A00EB80005D
:10291000114951F82000012801D94FF00108104851
:10292000006808B14FF0010804E00E480068401C40
:102930000C4908604046BDE8F081000050000020CE
:1029400028000020180000201C0000203C0000206F
:10295000440000202C000020D000002014000020A3
:10296000380000203400002070B50346D868C168E4
:1029700051B900BF502080F31188BFF34F8FBFF3D0
:102980006F8F00BF00BFFEE7886AD1E90745A560E9
:10299000D1E90754656001F118044568A54201D1E9
:1029A0000C6A446000258D620468641E046030482F
:1029B000006800283DD14869D1E90245A560D1E908
:1029C000025465600C1D4568A54201D1CC68446085
:1029D00000254D610468641E046091F82C400120BC
:1029E000A040244C24682043224C2060CC6A04EB95
:1029F0008404214D05EB8404606888608568CD609F
:102A00000C1D85686C608460CC6A04EB84041A4DEC
:102A100005EB84054D61CC6A04EB8404164D55F832
:102A20002440641CCD6A05EB8505134E46F825400D
:102A300010E0124C6068C86185680D6201F11804ED
:102A400085686C6084600D4D8D622C462468641C22
:102A50002C6000BF0A4CC86A2468E46AA04204D90A
:102A600001220120074C206000E00022104670BDCA
:102A7000500000202C000020D00000205C0100202D
:102A8000140000203800002070B5002400265348B0
:102A9000006850B900BF502080F31188BFF34F8FFA
:102AA000BFF36F8F00BF00BFFEE7FFF7ADF94B48E4
:102AB0000068401E494908600846006800287DD12A
:102AC00047480068002879D05BE04648C068C46881
:102AD000A06AD4E907128A60D4E907214A6004F1A8
:102AE000180142688A4201D1216A41600022A26233
:102AF0000168491E01606069D4E902128A60D4E964
:102B000002214A60211D42688A4201D1E168416088
:102B1000002262610168491E016094F82C100120B6
:102B200088403149096808432F490860E16A01EB90
:102B300081012E4A02EB81014868A0608268E26050
:102B4000211D826851608160E16A01EB8101274AA1
:102B500002EB81026261E16A01EB8101234A52F8D2
:102B60002110491CE26A02EB8202204B43F822103A
:102B70001F49E06A0968C96A884202D301201D49D9
:102B800008601848006808B9012000E0002000280B
:102B90009BD00CB1FEF792FF1748056865B100BFE6
:102BA000FFF704FE10B10120124908606D1E002DD0
:102BB000F6D10020104908600E4800E009E00068E6
:102BC00038B1012630070D490860BFF34F8FBFF3BE
:102BD0006F8FFFF743F9304670BD000050000020B2
:102BE000240000205C0100202C000020D0000020E8
:102BF00014000020380000203400002004ED00E024
:102C00001CB50024FEF76AFC0E48006858B10E4857
:102C1000022100234FF48272CDE900100BA10D4870
:102C2000FFF77AFD044654B900BF502080F31188A5
:102C3000BFF34F8FBFF36F8F00BF00BFFEE720468B
:102C40001CBD00005C00002060000020546D72205C
:102C5000537663009D1B00084FF04070E1EE100AB0
:102C60007047000000000000000001020304060796
:102C70000809000000000102030400009C2C000869
:102C80000000002090000000C40100082C2D000866
:102C90009000002090330100E001000800000000D7
:102CA0000000000010000000010000000024F400FB
:102CB0000000000000000000000000000000000014
:102CC0000000000000000000000000000000000004
:102CD00000000000000000000000000000000000F4
:102CE00000000000000000000400000000000000E0
:102CF00000000000000000000000000000000000D4
:102D000000000000000000000000000000000000C3
:102D100000000000000000000000000000000000B3
:0C2D2000AAAAAAAA0000000000000000FF
:040000050800018965
:00000001FF
